:020000040800F2
:100000000848002089010008751300086D020008E7
:100010007113000859050008691400080000000069
:10002000000000000000000000000000791300083C
:100030005D05000800000000F70100087D130008BE
:10004000A3010008A3010008A3010008A301000800
:10005000A3010008A3010008A3010008A3010008F0
:10006000A3010008A3010008A3010008A3010008E0
:10007000A3010008A3010008A3010008A3010008D0
:10008000A3010008A3010008A3010008A3010008C0
:10009000A3010008A3010008A3010008A3010008B0
:1000A000A3010008A3010008A3010008A3010008A0
:1000B000A3010008A3010008A3010008A301000890
:1000C000A3010008A3010008A3010008A301000880
:1000D000A3010008A3010008A3010008A301000870
:1000E000A3010008A3010008A301000800F002F822
:1000F00000F03AF80AA090E8000C82448344AAF188
:100100000107DA4501D100F02FF8AFF2090EBAE885
:100110000F0013F0010F18BFFB1A43F0010318473B
:100120004065000060650000103A24BF78C878C1BF
:10013000FAD8520724BF30C830C144BF04680C60ED
:10014000704700000023002400250026103A28BF35
:1001500078C1FBD8520728BF30C148BF0B60704739
:100160001FB51FBD10B510BD00F091F91146FFF786
:10017000F7FF00F0C7F900F0AFF903B4FFF7F2FFA3
:1001800003BC00F0B7F90000094880470948004760
:10019000FEE7FEE7FEE7FEE7FEE7FEE7FEE7FEE737
:1001A000FEE7FEE704480549054A064B7047000094
:1001B00065140008ED0000080842002008480020EF
:1001C0000844002008440020EFF3108072B6704706
:1001D00080F310887047324A1368012B04D04FF027
:1001E000010313602F4A10602F4A11602F484FF00F
:1001F000805101607047EFF3108272B628480168A1
:1002000091B14FF0000101602648016829B1EFF378
:10021000098121E9F00F0068016023490968096834
:10022000B1E8F00F81F3098882F310884EF0040ED4
:1002300070471D4908601B494FF0000008601849CD
:100240004FF0010008601A481A49D0F8002041EA2E
:100250000201016015484FF08051016016480068A6
:10026000006880F3088861B662B670471EF0040F1C
:100270000CBFEFF30880EFF3098020E9F00F40F89E
:1002800004ED1EF0040F0CBF80F3088880F309888A
:1002900000B503F02FFB5DF804EB4EF0040E704741
:1002A000F8410020EC3E0020F43E002004ED00E088
:1002B00020ED00E00000FFFF08ED00E010B5431C5A
:1002C00002E010F8011B71B18107FAD14FF0013241
:1002D00002C88C1A8C4314EAC211F9D0C01A0A065B
:1002E00003D0C01E10BDC01A10BD0A0401D0801E6C
:1002F00010BD0902FCD0401E10BD40EA010370B5DC
:100300009B072ED14FF00136042A2AD308C810C902
:100310009D1B9D43121F15EAC61517D0D8B2E1B236
:10032000401A50EA056110D198B2A1B2401A50EAC1
:1003300005410AD123F07F4024F07F41401A50EA62
:10034000052102D1180EA0EB146070BDA342DBD0D2
:1003500018BA21BA884201D9012070BD4FF0FF3090
:1003600070BD0AB9002070BD10F8013B11F8014BB7
:1003700063B1A3420AD1521E08D010F8013B11F814
:10038000014B1BB1A34201D1521EEDD1181B70BD10
:1003900002F0FF0343EA032242EA024200F002B8FD
:1003A0004FF000020429C0F0128010F0030C00F09E
:1003B0004980CCF1040CBCF1020F18BF00F8012BEE
:1003C000A8BF20F8022BA1EB0C0100F03BB85FEABC
:1003D000C17C24BF00F8012B00F8012B48BF00F8B6
:1003E000012B704710B5044610F0030F08BF11F041
:1003F000030F40F015804FF0013E121FC0F20E8037
:1004000051F8043BA3EB0E0C2CEA030C1CEACE1CA7
:1004100008BF40F8043BF0D0A1F1040102F104024E
:10042000521E08DB11F8013B00F8013B002BF7D10D
:100430001146FFF7B5FF204610BD70477047704763
:100440004FF0000200B5134694469646203922BF6D
:10045000A0E80C50A0E80C50B1F12001BFF4F7AFB8
:10046000090728BFA0E80C5048BF0CC05DF804EB9A
:10047000890028BF40F8042B08BF704748BF20F808
:10048000022B11F0804F18BF00F8012B7047754602
:1004900000F02CF8AE4605006946534620F00700F0
:1004A000854618B020B5FFF77DFEBDE820404FF02F
:1004B00000064FF000074FF000084FF0000BAC466D
:1004C000ACE8C009ACE8C009ACE8C009ACE8C009B8
:1004D00021F007018D46704710B50446AFF3008048
:1004E0002046BDE81040FFF748BE000000487047B6
:1004F0005000002001491820ABBEFEE72600020094
:100500007047000080B582B0FFF75EFE03F054F93B
:1005100004F01EF804F0E0F904F030F90A2000902D
:1005200046F2815042F641014FF0140CC0F6000033
:10053000C0F6000100224FF48073CDF804C004F02F
:10054000D5F904F067FB04F0CFF904F085FA04F064
:10055000ABF9002002B080BDFEE70000704700004C
:10056000EFF3108072B600BFFEE700002DE9F04FF8
:1005700082B00E68002E00F0038141F20042C4F206
:100580000102042340F2004E904208BF03234FF6BD
:10059000FF7CC4F2010E009300240123C1F2100C71
:1005A0004FF0000A4FF0000949E000BF012704F0B6
:1005B0000C030F229A402BEA020207FA03F34FEAD8
:1005C0009A051A4346F82520D1F804B040F20C45AC
:1005D0005FEACB22DEF8082054BF22EA080242EA92
:1005E0000802C4F20105CEF808202A685FEA8B23CE
:1005F00054BF22EA080242EA08022A605FEA8B330B
:10060000DEF8042054BF22EA080242EA08025FEA48
:10061000CB33CEF80420DEF800204FF0010354BFA6
:1006200022EA080242EA0802CEF800200E680AF127
:10063000010A36FA0AF204F1040400F0A18003FA78
:100640000AF816EA080FF1D04E68664512DC122E41
:1006500056D8DFE806F0350B4549555555555555E3
:10066000555555555555554D510000BFD1F80C9075
:1006700046E000BF4FF6FF72C1F2210296420FDC46
:100680000022C1F2110296421AD00022C1F21202D7
:10069000964215D00022C1F22102964210D02FE0DE
:1006A0000022C1F2220296420AD00022C1F2310297
:1006B000964205D00022C1F23202964220D100BFFC
:1006C0008A684AB1012A14BFC0F81480C0F81080AB
:1006D0004FF0080914E000BF4FF0040910E000BF1C
:1006E000CA6802F108090BE04FF0000908E000BFFA
:1006F000CA6802F1040903E0CA6802F10C0900BFEC
:1007000022460646BAF1080F24BF203A043637685D
:100710000F25954027EA050509FA02F22A433260BF
:10072000CA79D2067FF582AF41F21803C4F2020300
:100730001A68AEF57E7642F001021A601A6802F07D
:1007400001020192019A2AF0030256F802B040F623
:100750000002C4F20102904210D040F60042C4F2FE
:10076000010290423FF422AF41F20002C4F20102C2
:10077000009F904208BF022719E700BF002716E735
:1007800002B0BDE8F08F0000002A08BF0904016133
:100790007047000044F20020C2F200000068704779
:1007A00080B542F20000C4F20200016841F010017D
:1007B0000160032000F07AF80F2000F005F800F047
:1007C00027F8002080BD000070B540F20006C2F29C
:1007D000000640F208013278C2F200014FF47A7349
:1007E0000968B3FBF2F20446B1FBF2F1084600F0EF
:1007F0004FFB0F2C4FF0010508D838B94FF0FF30F0
:1008000021460022002500F025F87460284670BDBE
:1008100082B041F21800C4F202000168022241F0E5
:1008200001010160016801F0010101910199416834
:1008300041F080514160406800F080500090009885
:100840000420C4F20100016862F31A61016002B081
:100850007047000010B54EF60C5CCEF2000CDCF8D0
:100860000030C3F3022E8EF00704042C28BF0424AA
:10087000BEF103034FF0FF3E0EFA04F438BF00232D
:10088000A14399400EFA03F39A43114300F00F027B
:1008900000F160430901043A03F56443624400280F
:1008A00048BF02F10C03197010BD00004EF60C5148
:1008B000CEF200010A684FF6FF031A4060F30A22E5
:1008C00042F0806040F0FD70086070472DE9F04311
:1008D00081B0002800F0858042F20008C4F20208CE
:1008E0000446D8F800000D4600F0070088420CD2FC
:1008F000D8F8000020F007002843C8F80000D8F816
:10090000000000F00700A8426BD1206841F2040902
:100910008107C4F2020917D5410705D5D9F800109F
:1009200041F4E061C9F80010010705D5D9F80010BD
:1009300041F46051C9F80010D9F80010A26821F004
:10094000F0011143C9F80010C00741D1D8F80000E8
:1009500000F00700A8420CD9D8F8000020F00700EA
:100960002843C8F80000D8F8000000F00700A842AB
:1009700037D12068410707D5D9F80010E26821F483
:10098000E0611143C9F80010000708D5D9F800004C
:10099000216920F4605040EAC100C9F80000D9F88C
:1009A000002002F00C00082841F20020C0F27A007A
:1009B00050D146F2B203C2F38341C0F60003595C42
:1009C000D2033BD440F60010C0F23D00484341E062
:1009D000606802280AD001282AD159F8041C89032A
:1009E00008D4012001B0BDE8F08300BF59F8041C11
:1009F0008901F6D5D9F8001021F003010843C9F8A0
:100A00000000FFF7C7FE064641F28837D9F800001C
:100A1000616800F00C00B0EB810F97D0FFF7BAFED1
:100A2000801BB842F2D9032001B0BDE8F08300BFBB
:100A300059F8041C8907D4D5DCE700BFD9F8002099
:100A400045F6B073C2F34042C0F600039A5C4843D7
:100A5000B0FBF2F0D9F8001045F69872C1F303111B
:100A6000C0F60002515C40F2080220FA01F140F2A7
:100A70000400C2F200000068C2F200021160FFF739
:100A8000A3FE002001B0BDE8F083000040F20800A2
:100A900041F20401C2F20000C4F2020100680968D8
:100AA00045F6A872C1F30221C0F60002515CC840AD
:100AB0007047000040F2080041F20401C2F2000059
:100AC000C4F202010068096845F6A872C1F3C221A8
:100AD000C0F60002515CC840704700002DE9F041AB
:100AE00082B0002868D00446007841F20006C007B2
:100AF000C4F2020625D0706800F00C0004281BD058
:100B0000706800F00C00082802D17068C00313D48C
:100B10006068002800F06881B0F5A02F00F07C81AB
:100B2000B0F5803F00F07C81306820F48030306088
:100B3000306820F4802076E13068800301D5606859
:100B4000D0B32078800718D5706810F00C0F07D04C
:100B5000706800F00C0008286ED17068C0036BD478
:100B60003068800702D52069012825D13068616985
:100B700020F0F80040EAC1003060207800071FD460
:100B80002078400732D4E56995B1706800F00C0018
:100B9000082840F08F80012D0ED07068216A00F483
:100BA00080328A4208D1616A00F47010884203D111
:100BB000002002B0BDE8F081012002B0BDE8F08164
:100BC000A069002862D00020C4F242200121C0F8B0
:100BD0008014FFF7DFFD0546706A800700F18C8006
:100BE000FFF7D8FD401B0228F6D92AE1F06910F082
:100BF000805808D1F06940F08050F061F06900F051
:100C000080500090009847F20007C4F2000738684F
:100C1000C00529D4386840F480703860FFF7BAFD09
:100C2000054600BF3868C0051ED4FFF7B3FD401B62
:100C30006428F7D905E100BF2069002840F20000D0
:100C4000C4F2422000F0828001210160FFF7A2FD82
:100C5000054600BF306880073FF588AFFFF79AFD73
:100C6000401B0228F6D9ECE0E068002800F0808004
:100C7000052800F09780012800F09880306A20F065
:100C800001003062306A20F0040092E00020C4F2DB
:100C900042200021C0F88014FFF77CFD054600BF0C
:100CA000706A80077FF56CAFFFF774FD401B022868
:100CB000F6D9C6E00027C4F2422700203866FFF7C5
:100CC00069FD022D05460BD13068800140F1BE80E0
:100CD000FFF760FD401B02284FF00300F4D968E7DE
:100CE000306880017FF564AFFFF754FD401B022898
:100CF0004FF00300F4D95CE740F20800C2F20000B4
:100D0000006844F6D351C1F26201A0FB0101480A18
:100D1000019000BF00BF0198411E002801913FF4DF
:100D20002FAF00BF0198411E002801913FF428AF6A
:100D300000BF0198411E002801913FF421AF00BF80
:100D40000198411E00280191E4D119E700210160BA
:100D5000FFF720FD054600BF306880077FF50DAF27
:100D6000FFF718FD401B02284FF00300F4D920E7DD
:100D7000306A20F001003062306A20F004003062F6
:100D8000FFF708FD054641F2883700BF306A80074B
:100D900020D5FFF7FFFC401BB8424FF00300F5D908
:100DA00007E700BF306A40F004003062306A40F06C
:100DB00001003062FFF7EEFC054641F2883700BFC4
:100DC000306A800706D4FFF7E5FC401BB842F7D92C
:100DD00037E000BFB8F1000F7FF4D5AEF06920F026
:100DE0008050F061CFE600BF306820F48030306082
:100DF000306820F480203060FFF7CCFC054600BF4F
:100E0000306880037FF59DAEFFF7C4FC401B64286B
:100E10004FF00300F4D9CCE6306840F48020306015
:100E2000306840F480303060FFF7B4FC054600BF06
:100E3000306880033FF585AEFFF7ACFC401B6428AB
:100E4000F6D9032002B0BDE8F08100BF206AB0F5FA
:100E5000803F05D17168A26821F4003111437160AF
:100E60007168626A21F474111143084370600120B3
:100E70003866FFF78FFC0446306880013FF598AE76
:100E8000FFF788FC001B02284FF00300F4D990E61E
:100E9000411E0020B0EB116F1CBF012070474EF2C5
:100EA0001002CEF2000251604EF62351CEF2000144
:100EB000F0230B700721906011607047002804BF79
:100EC0000120704710B5044690F8410028B9002071
:100ED00084F84000204600F063F8242084F84100A4
:100EE0002068D4E90212C36823F40053C360036985
:100EF00023F440531A430261D4E904231143C26826
:100F0000194341F20C639A431143C1604169A269DC
:100F100021F44071114343F60002C4F201029042F1
:100F2000416103D0FFF7B2FD02E000BFFFF7C2FD51
:100F30006268192148439100B0FBF1F048F21F515B
:100F4000C5F2EB11A0FB01235A094FF69C73C0F6C2
:100F5000FF7302FB0300322303EB0010A0FB01012F
:100F6000F02303EA5113206803EB0212C1F343118B
:100F700011448160016921F490410161416921F0CE
:100F80002A014161C16841F40051C1600020202163
:100F9000606484F8411084F84210606310BD000062
:100FA00070B586B040F60004C4F201040068A4F5F0
:100FB000444100268842049602D006B070BD00BFAE
:100FC00041F21800C4F20200416802AD41F4003160
:100FD0004160416801F4003101910199016841F0DB
:100FE000040101600068294600F0040001900198A6
:100FF0000420029002200390032005902046FFF772
:10100000B5FA0820CDE90206204629460496FFF7E6
:10101000ADFA06B070BD00002DE9F04381B0044682
:1010200090F84100202840F0B180884600294FF018
:10103000010000F0D6801646002A00F0D280002081
:10104000606421201D4684F84100FFF7A3FBA684BD
:10105000E684A1680646B1F5805F03D120690028C7
:1010600000F0988047464FF00008E18C2068002986
:1010700000F0968005F101090BE000BF47B317F8B7
:10108000011B4160E18C0139E184E18C002900F011
:10109000878001680906F1D4B9F1000F0AD0EDB1DB
:1010A000FFF778FB801BA84218D820680168090662
:1010B000F6D5E3E701680906E0D4016809065CBFDC
:1010C00001685FEA0161D9D401680906F2D5D5E764
:1010D00038F8021B00276FF35F21D2E7206850E841
:1010E000030F216820F4D07041E80302BAB32068EE
:1010F00050E8030F216820F4D07041E8030272B376
:10110000206850E8030F216820F4D07041E8030202
:101110002AB3206850E8030F216820F4D07041E81A
:101120000302002ADAD11AE0206850E8050F21688E
:1011300020F0010041E80502DAB1206850E8050F0F
:10114000216820F0010041E8050292B1206850E8D2
:10115000050F216820F0010041E805024AB120682E
:1011600050E8050F216820F0010041E80502002A3F
:10117000DAD1202084F8410084F84200002084F86D
:101180004000032001B0BDE8F08300BF022001B0A1
:10119000BDE8F0830027E18C206800297FF46AAF66
:1011A0000168490619D4FDB1691C0DD101684906D1
:1011B00013D4016849065CBF01685FEA41610CD441
:1011C00001684906F2D508E0FFF7E4FA801BA8425F
:1011D0000AD8206800684006F6D5202084F841002F
:1011E000002001B0BDE8F083206850E8030F2168BB
:1011F00020F4D07041E80302002A3ED0206850E875
:10120000030F216820F4D07041E80302AAB32068DC
:1012100050E8030F216820F4D07041E8030262B364
:10122000206850E8030F216820F4D07041E80302E1
:10123000002AD9D121E000BF206850E8050F2168BD
:1012400020F0010041E80502002A3FF492AF206837
:1012500050E8050F216820F0010041E80502002A4E
:101260003FF487AF206850E8050F216820F00100A7
:1012700041E80502002A3FF47CAF206850E8050FE2
:10128000216820F0010041E80502002AD4D170E76E
:101290002DE9F04385B041F21800C4F20200016864
:1012A00040F6000441F0100101600168C4F201043D
:1012B00001F0100101910199016804F5006541F008
:1012C000200101600168002201F0200101910199D3
:1012D00001684FF4005641F00401016000684FF4CA
:1012E000005100F004000190019828464FF00009D9
:1012F000FFF74AFA20464FF4F05100224FF4F0581D
:10130000FFF742FA0196022001AE01270490284619
:101310003146CDE90279FFF729F9032004902046F0
:101320003146CDE90187CDF80C90FFF71FF905B0E4
:10133000BDE8F08380B540F2242044F20041C2F2BF
:101340000000C4F2000100234FF00C0C4FF4E13216
:1013500080E80E00C0E90333C0E905C3C361FFF7AD
:10136000ADFD002808BF80BDBDE88040FFF7F8B89C
:10137000FEE70000FEE700007047000080B502F0C5
:10138000EDFC03F0FDFCBDE8804002F0F5BC000080
:10139000B0B590B000240120CDE90B44CDE909445B
:1013A00006900A904FF4E0104FF4803102250F9020
:1013B00006A8CDE90714CDE90D51FFF78FFB28B141
:1013C000EFF3108072B600BFFEE700BF0F20CDE93B
:1013D00001054FF48060CDE9040401A802210394C3
:1013E000FFF774FA20B1EFF3108072B6FEE700BF8A
:1013F00010B0B0BD41F20400C4F20200016801F077
:101400000C01082941F20021C0F27A0119D10268C9
:101410000368C2F38342DB0302F1020206D440F602
:101420000011C0F23D0151430BE000BF03689B0374
:1014300002D4514305E000BF40F60011C0F23D0167
:10144000514340F20802C2F200021160006845F602
:101450009873C0F30310C0F60003185C21FA00F083
:101460001060704770470000FEE70000002804BFCE
:1014700000207047C1B209B101200CE010F47F4197
:1014800002D0090A092006E010F47F0107BF010E0F
:101490001920090C112045F6B272C0F60002515C09
:1014A0000844704780B500F051FC002080BD00006A
:1014B00080B500F0BBFD002080BD000070B582B09B
:1014C00040F2B00646F2A05046F26061C2F2000659
:1014D000C0F60000C0F60001C6E900010120782135
:1014E00002F04AF8706128B30A201521CDE90010F6
:1014F00041F26D5113A0C0F6000100224FF4806349
:10150000002403F0F3F97269054610A11046002289
:10151000002302F06BFF706990F8211041F0020186
:1015200080F821101DB1284603F074FB00242046EA
:1015300002B070BD07A002F02DFC4FF0FF34204632
:1015400002B070BD747368656C6C0000736872786B
:10155000000000006E6F206D656D6F727920666F00
:1015600072207368656C6C0A0000000040F2B00ADB
:10157000C2F2000ADAF8140040F2201490F82110A8
:10158000C2F2000441F0010280F82120880703D450
:101590000020207026E000BFDAF8101041B140F2C0
:1015A0002010C2F200004FF48072FEF71BFF19E01A
:1015B00001F05CFD30B10020207147F26D30C2F2C5
:1015C000680009E046F67300C0F22000C4F803008A
:1015D00046F66610C7F26E3020602046FEF76EFEBB
:1015E0003E212152204602F0D5FB46F2CF364FF085
:1015F000010B4FF00008C0F60006022702E000BF12
:1016000080F820B002F026F98146DAF81400B9F12A
:101610001B0FF5D090F82010022909D0012940F0C5
:101620007580B9F15B0F40F06F8080F82070E9E7BA
:10163000A9F14101022980F82080E3D3B9F1440FD8
:1016400000F29280DFE819F04600970097009700BB
:101650009700970097009700A000E00070009700A7
:1016600097007000970097009700970097009700E9
:1016700097009700970097009700970097009700B2
:1016800097009700970097009700970097009700A2
:101690009700970097009700970097009700970092
:1016A0009700970097009700970097009700970082
:1016B0009700970097009700970097009700970072
:1016C00097009700970097009700970097004800B1
:1016D000860100BF96E700BFB0F87410B0F8722022
:1016E0009142BFF48FAF084490F8221046F2D130F7
:1016F000C0F6000002F04EFBDAF81400B0F87410E7
:101700000131A0F874107DE780F82080B9F10D0F49
:101710002AD8DFE809F007303030303030303979FE
:10172000093030096EE700BF01F0A0FC012812D19A
:10173000DAF8140090F82110C90707D046F2C64025
:10174000C0F6000002F026FBDAF81400B0F87210C0
:10175000223001F041FADAF8140090F821008007F5
:1017600078D484F800801FE1B9F17F0F0CD0B9F173
:10177000FF0F3FF447AFB0F87220502A74D3002215
:10178000A0F87220A4E000BFB0F8741000293FF464
:1017900039AFB0F872200139531E9AB2A0F87230F6
:1017A0008BB29A42A0F8741040F2B480C11801F1D3
:1017B00022002331D21A02F0CDFBDAF81400B0F87F
:1017C0007210084480F82280DAF81400B0F874101F
:1017D000084400F122018AA002F0DCFADAF81410C1
:1017E000B1F87400B1F8721088423FF60BAF451E95
:1017F000304602F0CFFADAF814000135B0F8720082
:101800008542F5D3FEE600BFB0F8741051B1002553
:10181000304602F0BFFADAF814000135B0F874105F
:101820008D42F5D300F1220546F2C640C0F6000015
:1018300002F0B0FA01F01AFC012802D1284601F0AA
:1018400009F9DAF8140090F8210080076ED484F8C2
:101850000080C3E0DAF81010002971D020464FF460
:101860008072FEF7BFFD9FE0B0F874309A422FD926
:10187000C11801F123002231D21A02F06BFBDAF811
:101880001400B0F87410084480F82290DAF81400BC
:1018900090F82110C90709D0B0F87410084400F17D
:1018A00022015BA002F076FADAF81400B0F8745066
:1018B000B0F872108D421DD2304602F06BFADAF8A1
:1018C00014000135B0F872108D42F5D312E000BF5C
:1018D000104480F82290DAF8140090F82110C9071B
:1018E00008D046F2D130C0F60000494602F052FA64
:1018F000DAF81400B0F87210B0F874200131A0F8D2
:10190000721089B201325029A0F8742028BFC0F8A3
:10191000728077E639A002F03DFADAF81400B0F8E8
:101920007210084480F822806CE600BFDAF81010CC
:1019300001B320464FF48072FEF754FD4EE000BF25
:1019400001F094FB00B347F26D3084F80480C2F2DA
:10195000680023E0B0F8740000283FF453AE30462E
:1019600002F018FADAF81400B0F874100139A0F88F
:10197000741047E601F07AFB00B347F26D3084F84B
:101980000480C2F2680023E046F67300C0F2200033
:10199000C4F8030046F66610C7F26E302060204699
:1019A000FEF78CFC3E212152204602F0F3F9DAF8D2
:1019B000140054212230FEF7F3FC23E646F67300B0
:1019C000C0F22000C4F8030046F66610C7F26E307D
:1019D00020602046FEF772FC3E2121520AA02146DB
:1019E0002A4602F0D7F9DAF8145005F12200FEF782
:1019F00065FCA5F87200A5F8740003E6082008004D
:101A000008257320200800002573257300000000BE
:101A10002573000080B502A002F0BCF9002080BD53
:101A200048656C6C6F2052542D5468726561642156
:101A30000A0000002DE9F04381B016A002F0AAF9D7
:101A400040F2B00040F2B409C2F20000C2F2000954
:101A50000768D9F80050AF4218D213A40FF24C080F
:101A600003E000BF0C37AF4210D23E68214630463B
:101A70000222FEF742FC0028F4D07A684046314644
:101A800002F088F9D9F80050ECE700BF002001B05F
:101A9000BDE8F0832D2D46756E6374696F6E204C22
:101AA0006973743A0A0000005F5F0000252D31362B
:101AB00073202D2D2025730A000000002DE9F04F22
:101AC0008DB0052002F09EFB00F1040881A08AA2DF
:101AD000082102F05FF946F28834C0F6000420467F
:101AE00002F058F9204602F055F9204602F052F96A
:101AF000204602F04FF9204602F04CF9204602F051
:101B000049F9204602F046F9204602F043F97CA04C
:101B100002F040F946F29E3746F28A3400260DF173
:101B2000140BC0F60007C0F60004CDF80C8005E0E9
:101B3000049EDDF80C80002E00F0C8803546002E93
:101B400008BF4546FEF740FB36B115F8041C01F00E
:101B50007F01052940F0B8802968414500F0B48034
:101B60000A68059142451DD01168069241451DD075
:101B70000A68079142451DD01168089241451DD061
:101B80000A68099142451DD011680A9241451DD04D
:101B90000A680B9142451DD04FF008081146049287
:101BA0000C921BE04FF0010816E000BF4FF0020856
:101BB00012E000BF4FF003080EE000BF4FF0040832
:101BC0000AE000BF4FF0050806E000BF4FF006082E
:101BD00002E000BF4FF007080021049155A5FEF771
:101BE000F7FA4FF0000909E046F2C640C0F60000DF
:101BF00002F0D0F809F10109C14599D05BF829A09C
:101C0000FEF7E2FA1AF8041C01F07F06FEF7E0FA8C
:101C1000052EEFD1AAF10C035AF8082F0026BAF8C6
:101C20000E10BAF80C00524510D0524612685245B8
:101C300021D0126852451BD0126852451AD0126842
:101C400004365245F2D1013E15E000BF524600BFB6
:101C5000126852452FD01268524529D01268524559
:101C600028D0126804365245F2D1013E23E000BF6D
:101C7000013600E00236CDE9001028A00821082234
:101C8000029602F087F8DAF800605645ACD000BF43
:101C9000A6F11401384602F07DF830685045A3D013
:101CA000204602F077F836685645F1D19CE700BF30
:101CB000013600E00236CDE900102846082108224E
:101CC000029602F067F895E7FEF782FA00200DB061
:101CD000BDE8F08F252D2A2E7320656E7472792051
:101CE00073697A652073757370656E6420746872A9
:101CF0006561640A000000006D61696C626F7800C4
:101D0000202D2D2D2D20202D2D2D2D202D2D2D2D37
:101D10002D2D2D2D2D2D2D2D2D2D0A00252D2A2E4D
:101D20002A73202530346420202530346420256433
:101D30003A000000252D2A2E2A73202530346420F5
:101D400020253034642025640A00000010B540F2DC
:101D5000C804C2F20004216806A002F01BF8216941
:101D600009A002F017F861690CA0BDE8104002F06C
:101D700011B800BF746F74616C206D656D6F7279FE
:101D80003A2025640A00000075736564206D656D56
:101D90006F7279203A2025640A0000006D6178692D
:101DA0006D756D20616C6C6F6361746564206D6529
:101DB0006D6F72793A2025640A0000002DE9F04F1A
:101DC0008DB0022002F01EFA00F104087FA086A266
:101DD000082101F0DFFF46F28834C0F600042046F7
:101DE00001F0D8FF204601F0D5FF204601F0D2FFD8
:101DF000204601F0CFFF204601F0CCFF204601F045
:101E0000C9FF204601F0C6FF204601F0C3FF79A0BC
:101E100001F0C0FF46F29E3746F28A3400260DF1EB
:101E2000140BC0F60007C0F60004CDF80C8005E0E6
:101E3000049EDDF80C80002E00F0C4803546002E94
:101E400008BF4546FEF7C0F936B115F8041C01F08D
:101E50007F01022940F0B4802968414500F0B0803C
:101E60000A68059142451DD01168069241451DD072
:101E70000A68079142451DD01168089241451DD05E
:101E80000A68099142451DD011680A9241451DD04A
:101E90000A680B9142451DD04FF008081146049284
:101EA0000C921BE04FF0010816E000BF4FF0020853
:101EB00012E000BF4FF003080EE000BF4FF004082F
:101EC0000AE000BF4FF0050806E000BF4FF006082B
:101ED00002E000BF4FF00708002104914FA5FEF774
:101EE00077F94FF0000909E046F2C640C0F600005D
:101EF00001F050FF09F10109C14599D05BF829A013
:101F0000FEF762F91AF8041C01F07F06FEF760F98B
:101F1000022EEFD1AAF10C035AF8081F0026BAF8D6
:101F20000800514510D051460968514521D0096833
:101F300051451BD0096851451AD0096804365145EE
:101F4000F2D1013E15E000BF514600BF096851457E
:101F50002DD00968514527D00968514526D0096818
:101F600004365145F2D1013E21E000BF013600E0C8
:101F70000236009025A008210822019601F00AFFF0
:101F8000DAF800605645AFD0A6F11401384601F0EA
:101F900001FF30685045A7D0204601F0FBFE3668AF
:101FA0005645F1D1A0E700BF013600E002360090AF
:101FB000284608210822019601F0ECFE9AE700BFAE
:101FC000FEF706F900200DB0BDE8F08F252D2A2E72
:101FD00073207620202073757370656E642074689A
:101FE000726561640A00000073656D6170686F72EC
:101FF00065000000202D2D2D202D2D2D2D2D2D2D7A
:102000002D2D2D2D2D2D2D0A00000000252D2A2EE1
:102010002A7320253033642025643A00252D2A2E8A
:102020002A7320253033642025640A002DE9F04FFF
:102030008DB0012002F0E6F8051D46F21330C0F61F
:10204000000071A2082101F0A5FE46F28834C0F616
:102050000004204601F09EFE204601F09BFE204633
:1020600001F098FE204601F095FE204601F092FE18
:10207000204601F08FFE204601F08CFE204601F044
:1020800089FE63A001F086FE00240DF1140A039579
:1020900005E000BF049C039D002C00F0B1802646A3
:1020A000002C08BF2E46FEF78FF834B116F8041C3A
:1020B00001F07F01012940F0A1803168A94200F0C0
:1020C0009D800A680591AA421ED011680692A94215
:1020D0001ED00A680791AA421ED011680892A94230
:1020E0001ED00A680991AA421ED011680A92A9421C
:1020F0001ED00A680B91AA421ED04FF00808114664
:1021000004920C921CE000BF4FF0010816E000BFE3
:102110004FF0020812E000BF4FF003080EE000BFCE
:102120004FF004080AE000BF4FF0050806E000BFCA
:102130004FF0060802E000BF4FF0070800210491AD
:10214000FEF746F84FF0000906E000BFFEF740F842
:1021500009F10109C1459DD05AF829B0FEF734F8BC
:102160001BF8041C01F07F010129EFD1ABF10C0633
:10217000FEF72EF89BF8294035A0082108223346A7
:10218000009401F007FE9BF8280000F00F000428DF
:1021900004D832A151F8200001F0FCFDDBF81C004E
:1021A000014600BF0A78232A0FD14A78232A09D191
:1021B0008A78232A08D1CA780431232AF2D0013937
:1021C00003E000BF013100E00231DBE90824DBF865
:1021D00010601718401A104464214843DBF834504B
:1021E000B0FBF2F3B91B22A00095019401F0D2FDDF
:1021F00009F10109C145AFD14CE700BFFDF7E8FF88
:1022000000200DB0BDE8F08F746872656164000055
:10221000202D2D2D20202D2D2D2D2D2D2D202D2D22
:102220002D2D2D2D2D2D2D2D202D2D2D2D2D2D2DEB
:102230002D2D2D20202D2D2D2D2D2D20202D2D2D02
:102240002D2D2D2D2D2D2D202D2D2D0A00000000A2
:10225000252D2A2E2A732025336420005763000879
:10226000696300088C6300089563000860630008D8
:102270002030782530387820307825303878202084
:102280002020253032642525202020307825303844
:102290007820253033640A002DE9F04F8FB00A20F2
:1022A00001F0B0FF00F1040A0FF2A8400FF2CC4297
:1022B000082101F06FFD46F28834C0F60004204684
:1022C00001F068FD204601F065FD204601F062FD49
:1022D000204601F05FFD204601F05CFD204601F044
:1022E00059FD204601F056FD204601F053FD0FF246
:1022F000944001F04FFD4FF0000923E0A4F10C07DA
:10230000FDF766FFD4E906050821009046F2723019
:10231000C0F6000008223B46019501F03BFD14F891
:10232000030CC00707BF46F20630C0F6000046F2B5
:102330000830C0F6000001F02DFD00BFB9F1000F1C
:1023400000F0FE814C46B9F1000F08BF5446FDF77E
:102350003BFFB9F1000F06D014F8041C01F07F0117
:102360000A2940F0EB812168514500F0E781D1F85E
:1023700000B00791D34523D0DBF80010CDF820B092
:10238000514521D00A680991524500F0F780116843
:102390000A92514500F0F8800A680B91524500F00E
:1023A0002D8111680C92514500F06681D1F80090A2
:1023B0000D91D14500F06C81CDF8389002E000BF5E
:1023C0004FF00009002102E04FF000090121002632
:1023D000069100250021059100210491002103911F
:1023E000FDF7F6FEDDF81C80FDF7EEFE18F8041C84
:1023F00001F07F010A2921D1A8F10C07FDF7E8FEC1
:10240000D8E906040821009046F27230C0F60000B8
:1024100008223B46019401F0BDFC18F8030CC007EC
:1024200007BF46F20630C0F6000046F20830C0F69C
:10243000000001F0AFFCD34505D17FE7FDF7C8FEF2
:10244000D3453FF47BAF089CFDF7BEFE14F8041C97
:1024500001F07F010A2927D1B0462E46A4F10C07CE
:10246000FDF7B6FED4E906050821009046F2723069
:10247000C0F6000008223B46019501F08BFC14F8E1
:10248000030CC00707BF46F20630C0F6000046F254
:102490000830C0F6000001F07DFC3546464606983F
:1024A00000287FF44BAF05E0FDF792FE0698002868
:1024B0007FF444AF099CFDF787FE14F8041C01F07B
:1024C0007F010A2926D1B0462E46A4F10C07FDF75C
:1024D0007FFED4E906050821009046F27230C0F66E
:1024E000000008223B46019501F054FC14F8030C4F
:1024F000C00707BF46F20630C0F6000046F20830BB
:10250000C0F6000001F046FC35464646002E7FF43A
:1025100015AF04E0FDF75CFE002E7FF40FAF0A9CC0
:10252000FDF752FE14F8041C01F07F010A2933D193
:102530002E46A4F10C07FDF74BFED4E90605082151
:10254000009046F27230C0F6000008223B4601952A
:1025500001F020FC14F8030CC00707BF46F2063058
:10256000C0F6000046F20830C0F6000001F012FC90
:102570003546002D7FF4E2AE13E000BF00210126B6
:102580004FF0000924E700BF002101254FF00009AA
:10259000069100261EE700BFFDF71AFE002D7FF40E
:1025A000CDAE0B9CFDF710FE14F8041C01F07F016A
:1025B0000A292DD1A4F10C07FDF70AFED4E906057E
:1025C0000821009046F27230C0F6000008223B4617
:1025D000019501F0DFFB14F8030CC00707BF46F2BA
:1025E0000630C0F6000046F20830C0F6000001F0E8
:1025F000D1FB059800287FF4A1AE0FE001210591E1
:1026000000214FF00009069100260025E4E600BFF6
:10261000FDF7DEFD059800287FF490AE0C9CFDF7D9
:10262000D3FD14F8041C01F07F010A293ED1A4F166
:102630000C07FDF7CDFDD4E906050821009046F210
:102640007230C0F6000008223B46019501F0A2FB63
:1026500014F8030CC00707BF46F20630C0F60000AE
:1026600046F20830C0F6000001F094FB0498002800
:102670007FF464AE20E000BF0121049100210691A7
:1026800000214FF00009002600250591A6E600BFB5
:1026900001210391002106910021059100214FF0B5
:1026A00000090026002504919AE600BFFDF790FD81
:1026B000049800287FF442AE0D9CFDF785FD14F8C8
:1026C000041C01F07F010A2924D1A4F10C07FDF7B5
:1026D0007FFDD4E906050821009046F27230C0F66D
:1026E000000008223B46019501F054FB14F8030C4E
:1026F000C00707BF46F20630C0F6000046F20830B9
:10270000C0F6000001F046FB039800287FF416AEE7
:1027100006E000BFFDF75CFD039800287FF40EAED5
:102720000E9CFDF751FD14F8041C01F07F010A29ED
:102730003FF4E4ADFDF74CFD00E600BFFDF748FDBA
:1027400002F018FB014618A001F024FB00200FB096
:10275000BDE8F08F252D2A2E732020706572696FD9
:1027600064696320202074696D656F757420202072
:1027700020202020666C61670A00000074696D6586
:1027800072000000202D2D2D2D2D2D2D2D2D2D20D5
:102790002D2D2D2D2D2D2D2D2D2D202D2D2D2D2D76
:1027A0002D2D2D2D2D2D0A0063757272656E7420EE
:1027B0007469636B3A3078253038780A000000007D
:1027C000B0B590B0FDF7ECFF00240120CDE90B443B
:1027D000CDE9094406900A904FF4E0104FF480319F
:1027E00002250F9006A8CDE90714CDE90D51FEF79B
:1027F00075F928B1EFF3108072B600BFFEE700BF95
:102800000F20CDE901054FF48060CDE9040401A853
:1028100002210394FEF75AF820B1EFF3108072B64C
:10282000FEE700BFFEF734FDFEF784FD0020C4F292
:10283000B4300121012200F01DF8002010B0B0BD1D
:10284000B0B546F29C5446F29450C0F60004C0F66F
:102850000000A04209D246F29455C0F6000500BF20
:1028600055F8040B8047A542FAD3BDE8B040FFF706
:10287000A7BF00002DE9F04F89B00C4640F20C01D3
:10288000C2F20001096880460846914603F0F2FA58
:1028900048F20003C4F276030022002503F092F808
:1028A000074640460E4603F0E5FA02460B46384618
:1028B000314603F0E1F903F053F840F2E421C2F2AB
:1028C0000001086003F002FB0128C0F2BF80B9F1EB
:1028D000000F4FF0000049464FF4C0620CBF4FF0AC
:1028E000FF304FF0FF31B9F1000F08BF4FF48052B5
:1028F00008924FF0C05208BF4FF0606207924FF449
:102900008062B9F1000F08BF4FF4C05206924FF039
:10291000D05208BF4FF0C06205924FF44062B9F147
:10292000000F08BF4FF4006204924FF0905208BFAE
:102930004FF0B05203924FF40062B9F1000F08BF9C
:102940004FF4406202924FF0B05208BF4FF09052E5
:1029500040F6100701924FF4C052B9F1000F4FF04A
:10296000C068C4F2010708BF4FF48062009208BF3C
:102970004FF0D0584FF4805AB9F1000F4FF0606B10
:1029800000F0070601F0070908BF4FF4C06A08BF4E
:102990004FF0C05B13E000BF4FF0E0504FF4007108
:1029A00039603860204602F0C7F840F2E420C2F2F5
:1029B00000000068013503F089FA854246DA3EB12D
:1029C000072E0BD14FF040604FF4905104E000BF50
:1029D0004FF0E0504FF4007139603860204602F04B
:1029E000ABF80898386007983860204602F0A4F8E1
:1029F0000698386005983860204602F09DF80498E3
:102A0000386003983860204602F096F802983860E3
:102A100001983860204602F08FF800983860204610
:102A2000C7F8008002F088F82046C7F800A0C7F871
:102A300000B002F081F8B9F1000FADD0B9F1070F85
:102A4000B0D14FF040604FF49051A9E709B0BDE814
:102A5000F08F00002DE9F04F81B083460078A8B1D7
:102A600040F2B000C2F20000056840F2B400C2F2C9
:102A70000000D0F80080454580F0A88046F2C839B3
:102A80004FF0000AC0F6000900264CE046F2A130E3
:102A9000C0F6000001F07EF940F2B00040F2B40947
:102AA000C2F20000C2F200090768D9F80050AF4234
:102AB0001CD246F2C83446F2BC38C0F60004C0F658
:102AC000000802E00C37AF4210D23E682146304683
:102AD0000622FDF712FC0028F4D17A68B11D4046A9
:102AE00001F058F9D9F80050ECE700BF46F2C640B3
:102AF000C0F6000001B0BDE8F04F01F04BB900BFD7
:102B0000481C801B5045B8BF824632A0394601F0B0
:102B100041F940F2B400C2F20000D0F8008000BFDA
:102B20000C35454548D22F68494638460622FDF700
:102B3000E4FB0028F4D158460637FDF7BFFB0246F8
:102B400058463946FDF7D9FB0028E9D1BAF1000F04
:102B500004D03178304651B9D3E700BF3846FDF78D
:102B6000ADFB82463E46317830460029C9D0002070
:102B70003A5CDAB1914219D131184B78002BBFD0B1
:102B80003A185478002CBBD0A342B9D18B787BB1D2
:102B900094786CB1A3420BD1CB785BB1D2784AB1B7
:102BA000934207D1097904300029E1D13044A8E7E4
:102BB000881CA6E7C81CA4E746B1584631465246D1
:102BC00001B0BDE8F04F01F037BD00BF01B0BDE876
:102BD000F08F00BF25730A002DE9F04F8BB049B389
:102BE000CF1E8E1E4D1E002303E000BF043399420A
:102BF00020D0C25C202A01D0092A1FD19D4219D0C1
:102C0000C4186278202A01D0092A1DD19E4211D011
:102C1000A278202A01D0092A1CD19F420AD0E2784A
:102C2000202AE3D0092AE1D0C81AA0F1030804F150
:102C3000030A14E000200BB0BDE8F08FA1EB0308FD
:102C400000EB030A0BE000BFD84300EB010804F1DE
:102C5000010A04E0C81AA0F1020804F1020AC8F14E
:102C60000000A8F101010025D2B2092A2DD0202AA6
:102C70002BD0A84520D00AEB05025378092B1FD092
:102C8000202B1DD0A94217D09378092B1CD0202BC4
:102C90001AD043199F1C0FD0D778092F00F0368126
:102CA000202F00F03381033306D012790435D2B2DD
:102CB000092ADCD109E000BF45464DB92AE100BF31
:102CC00001352DB926E100BF0235002D00F022812B
:102CD00040F2B000C2F20000046840F2B400C2F258
:102CE00000000668B44280F0158146F2C83905F14B
:102CF000060BC0F6000903E00C34B44280F00A81F0
:102D00002768494638460622FDF7F7FA0028F3D12E
:102D1000B81D51462A46FDF7F0FA0028ECD117F805
:102D20000B000028E8D1A0680028009000F0F28095
:102D30004FF0000C4FF0000900265246CDE909CCB7
:102D4000CDE907CCCDE905CCCDE903CC4146CDF8A2
:102D50000890464588BF3146751A05F101090020E3
:102D600096460196175C202F01D0092F42D115EB12
:102D7000000B2BD01418677802F800C0202F01D068
:102D8000092F39D119EB000C24D0A7784FF0000C93
:102D9000202F84F801C001D0092F31D11BF102038B
:102DA00020D0E77884F802C0202F01D0092F2BD142
:102DB0001BF103031AD084F803C00EF1040E04368D
:102DC0000430175C202FD0D1D1E700BF02EB000EFA
:102DD0001FE000BFDDF8089004F1010E4FF0000C79
:102DE00019E000BF04F1020E13E000BF0EF1030E64
:102DF0000FE000BF31460CE00EF1010E711C08E03F
:102E00000EF1020EB11C04E0019904F1030E084416
:102E1000C11CDDF80890B9F1080F80F0AD80414584
:102E200080F0BE80222F21D10EF1010203A840F8CC
:102E300029209EF80170481C04E000BF12F8017FB1
:102E40000146013040454FF0000338BF0123222FD7
:102E500042D0404540D25C2FF0D1134613F8017F99
:102E6000222F04BF1A46881CE8E700BF03A840F8D9
:102E700029E04046414588BF08460A1A09F1010980
:102E8000571C00201EF80060092E21D0202E1FD0D4
:102E9000161800F088800EEB00056C78092C23D002
:102EA000202C21D03B1800F07E80AC78092C1FD05C
:102EB000202C1DD0B31C76D0EC78092C1CD0202CF3
:102EC0001AD0F31C6FD004301EF80060092EDDD13B
:102ED0000EEB00020E1812E0002B09F1010962D07E
:102EE00002F801CB8E1C0CE008446A1C461C06E06C
:102EF0000844AA1C861C02E00844EA1CC61C46457D
:102F000051D24645FFF422AF4DE000BF0335002DFE
:102F10007FF4DEAE00201AF8001041F020012029D5
:102F200017D00AEB00014A7842F02002202A13D081
:102F30008A7842F02002202A10D0CA7842F020027B
:102F4000202A0DD004301AF8001041F02001202969
:102F5000E7D1504405E000BF481C02E0881C00E0B7
:102F6000C81C002101701CA0514600F013FF4FF057
:102F7000FF300BB0BDE8F08F0EA000F00BFF03A8F0
:102F8000041F14A64D4654F8041F304600F002FFFB
:102F9000013DF8D146F2C640C0F6000000F0FAFE4E
:102FA000B9F1000FB6D0009A03A9484690470BB07C
:102FB000BDE8F08F546F6F206D616E79206172678C
:102FC000732021205765206F6E6C79205573653A08
:102FD0000A0000002573200025733A20636F6D6D91
:102FE000616E64206E6F7420666F756E642E0A00C9
:102FF0002DE9F04381B046F2A130C0F6000000F0A8
:10300000C9FE40F2B00040F2B409C2F20000C2F2C0
:1030100000090768D9F80050AF421DD246F2C83403
:1030200046F2BC38C0F60004C0F6000803E000BF5A
:103030000C37AF4210D23E68214630460622FDF7DB
:103040005CF90028F4D17A68B11D404600F0A2FE78
:10305000D9F80050ECE700BF46F2C640C0F60000C9
:1030600000F098FE002001B0BDE8F0830120704719
:103070002DE9F04F8AB0059115990FF2D4464F060D
:103080000FF2E04858BFB046CE06DDE9134948BF0D
:1030900021F00101CE074FF0300A08BF4FF0200A9F
:1030A0008E070DD400270197002701250097002ADD
:1030B00000F09A80CDE90251CDF810A013E000BFD6
:1030C000B2F1FF3F06DD4E0700F186800E07E9D51D
:1030D000202782E001270197002702972D27CDE9BD
:1030E000031A524200974CF6CD494FF0000BCCF634
:1030F000CC490DF1180A00BFA2FB09561409F508C6
:1031000002F00F0705EB850C25460A2B04BFF508D6
:10311000A2EB4C0718F80770002D0AF80B7049D085
:10312000A5FB097C04F00F07140ACE464FEADC0623
:10313000A14606EB86060A2B04BF4FEADC09A5EB85
:10314000460718F807500AEB0B0CB9F1000F594667
:103150008CF8015032D0A9FB0E5604F00F05140B69
:103160005146F708A24607EB87070A2B04BF4FEA30
:10317000D60AA9EB470518F80550BAF1000F8CF8EC
:1031800002501FD0AAFB0E5604F00F04120CF508D3
:1031900005EB85050A2B04BFF208AAEB450418F8D5
:1031A0000440F1460BF1040B002A8A468CF80340D8
:1031B000A2D109E00BF1010B06E000BF0BF1020BFD
:1031C00002E000BF0BF1030BDDF810A0DDE90251B6
:1031D000DDE913490DE000BF2B27009700250127EB
:1031E0000197002A7FF466AF30228DF818204FF047
:1031F000010BDDF814E0CB454B46C8BF5B4611F030
:10320000110FA4EB03025FD006462DB976453CBFF3
:1032100000983070013A0136C80631D4551EC0F20C
:103220008D8012F0030700F09580764538BF86F850
:1032300000A0012F06F1010040F09680023A0646F8
:10324000032DC0F08B80101D764506F1010238BFBA
:1032500086F800A0724538BF82F800A0B21C724503
:1032600038BF82F800A0F21C7245A0F1040038BFFC
:1032700082F800A0032806F10406E5DC4FF0FF32D7
:103280003046CB455EDAA3EB0B076FEA0B0617F06F
:10329000030703EB060C57D070453CBF3024047085
:1032A0005D1E012F00F1010409D07445A3F1020550
:1032B0003CBF30262670022F00F102046CD120465C
:1032C000BCF1030F73D28BE00027002AC8BF01278F
:1032D000019E3740D71B7A1E96DB17F0030C51D0A6
:1032E00070453CBF20240470BCF1010F00F10106C1
:1032F00040F00481023F3046032A46D33A1D20267F
:10330000704500F1010738BF0670774538BF3E7041
:10331000871C774538BF3E70C71C7745A2F1040271
:1033200038BF3E70032A00F10400E9DC4FF0FF32A1
:103330000646002D3FF46AAF6EE700BF30462A46CE
:10334000CB45A0DB04464BE01D46BCF1030F2ED25B
:1033500046E000BF2A46032DBFF475AF4FF0FF32A1
:10336000CB45FFF690AFEDE7704538BF80F800A081
:10337000022F06F1020040F0D180033A0646032DE9
:10338000ECD360E71746032AB8D24FF0FF32002D86
:103390003FF43CAF40E700BF03307445A3F10305A1
:1033A0003CBF302323700446BCF1030F18D33023F5
:1033B000044600BF744504F1010038BF2370704516
:1033C00038BF0370A01C704538BF0370E01C704507
:1033D000A5F1040538BF0370AB4504F10404E9DB33
:1033E000B9F1000F35D006A8023807E0ABF1040BA5
:1033F0000BF10403042B04F104042AD9744503D20D
:1034000000EB0B035B782370BBF1020F04F10103A7
:103410001EDB73453CBF10F80B701F70BBF1030F30
:1034200004F1020314D3734504D200EB0B0717F821
:10343000017C1F70BBF1040F04F1030308D3734533
:10344000D4D200EB0B0717F8027C1F70CEE700BF49
:103450001C46012A12DB12F00307A2F1010311D06E
:1034600074453CBF20202070012F04F101000DD1D4
:103470001A460446032B3ED322E000BF20460AB082
:10348000BDE8F08F032B36D31AE000BF7045A2F1E0
:1034900002063CBF20250570022F04F1020005D171
:1034A00032460446032B26D30AE000BF033470459E
:1034B000A2F103023CBF202707702046032B1AD33A
:1034C000013A2023204600BF704500F1010738BFB4
:1034D0000370774538BF3B70871C774538BF3B701A
:1034E000C71C7745A2F1040238BF3B7012F1020FEE
:1034F00000F10400E8D30AB0BDE8F08F76453CBF88
:1035000020243470BCF1020F00F1020612D1033FF7
:103510003046032AFFF439AFF0E600BF03367045AA
:1035200038BF80F800A0043A3046032DBFF48BAEBC
:1035300014E700BF764503D22C462025357025467A
:103540000330043F0646032ABFF4D8AE1DE700BF90
:103550003031323334353637383961626364656609
:1035600000000000303132333435363738394142CB
:103570004344454600000000B0B501FB00F420467E
:1035800000F022FC054620B128460021224600F02A
:1035900057FD2846B0BD0000B0B546F2945446F23F
:1035A0008C50C0F60004C0F60000A04228BFB0BD99
:1035B00046F28C55C0F6000555F8040B8047A5422D
:1035C000FAD3B0BD80B5FCF7FFFD40F20011C2F2A6
:1035D00000014A8801324A80BDE88040FCF7F8BD0E
:1035E000B0B5FCF7F1FD40F20015C2F200056988A4
:1035F0000446481E01B20029688005DD2046BDE86A
:10360000B040FCF7E5BD00BF002068802046FCF715
:10361000DFFD6868002808BFB0BDFCF7D5FD6988EC
:1036200004460029EAD1A868FDF720FF421E43F6B0
:10363000F870C2F2000050F832106868A1F114036B
:103640008342DBD02A7043F6F0626B60C2F2000264
:1036500012781C3001F1080132B1FCF7BCFD2046A4
:10366000BDE8B040FCF7B4BDFCF7B5FD2046BDE8B1
:10367000B040FCF7ADBD00002DE9F041002857D067
:1036800040F2C807C2F2000704467868A0424FD84B
:10369000B868A04298BFBDE8F08107F1180840461D
:1036A0004FF0FF31A4F10C0600F0DAFE34F80A0CFA
:1036B00018B13088B0F5F55F0AD025A000F06AFB9C
:1036C00034F80A2C34F80C3C28A0314600F062FB98
:1036D0004FF4F55044F80C0CD7F80CC066453CBFCD
:1036E000FE60B44654F8082C78683D691318F11A46
:1036F000294439610FD0598869B9B9688B420AD019
:103700009C4504BFFE60B4465A6844F8082C5968CA
:10371000331A01448B6054F8043CC518B54201D0FB
:10372000698839B14046BDE8F04100F06FBE00BF86
:10373000BDE8F081B44508BFFD606A6054F8081C1C
:10374000084483604046BDE8F04100F05FBE00BF22
:10375000746F206672656520612062616420646117
:10376000746120626C6F636B3A0A00006D656D3A9C
:10377000203078253038782C207573656420666C8D
:1037800061673A2025642C206D6167696320636F4F
:1037900064653A203078253034780A0040F2EC2015
:1037A000C2F200007047000040F2EC20C2F20000BC
:1037B00000F570507047000010B5FCF7F1FFFDF701
:1037C000E7FDFDF717FE40F2242044F20041C2F26B
:1037D0000000C4F2000100240C234FF4E13280E821
:1037E0001600C0E90344C0E90534C461FDF766FB77
:1037F000002818BFFCF7B4FE40F20800C2F2000037
:10380000006844F6D351C1F26201A0FB01014FF000
:10381000FF3000EB9110B4EB106F0ED14EF210019F
:10382000CEF2000148604EF62350CEF20000F022A6
:1038300002700020886007200860FFF7ADFEFFF7E8
:10384000ADFF0446FFF7B0FF01462046BDE810403B
:1038500000F036BF80B582B040F22420C2F20000F2
:1038600000680168890611D40168090706D500219E
:103870000191016801914068019001980A2001F0CE
:103880005BF9FF20C0B202B080BD00BF4068C0B28B
:1038900002B080BDF0B581B004460D208DF8030064
:1038A00040F22420C2F20000002180F8401020469F
:1038B00000F0AAFEE0B140F224260546C2F200065E
:1038C0000DF103070AE000BF304621460122012323
:1038D000FDF7A2FB013D04F1010409D020780A287C
:1038E000F2D13046394601220123FDF795FBEBE783
:1038F00001B0F0BD10B540F2E821C2F20001096844
:10390000044621B120468847002808BF10BD216C1D
:1039100046F2BB40C0F6000000F03CFA616A46F295
:103920007A40C0F6000000F035FAA16A46F28740FE
:10393000C0F6000000F02EFAE16A46F29440C0F6AC
:10394000000000F027FA216B46F2A140C0F600000B
:1039500000F020FA616846F2AE40C0F6000000F0C8
:1039600019FAA168C4A000F015FAE168C6A000F039
:1039700011FA2169C8A000F00DFA6169CAA000F02F
:1039800009FAA169CCA000F005FAE169CEA000F027
:1039900001FA216AD0A000F0FDF9616BD2A000F01D
:1039A000F9F9A16BD4A000F0F5F9E16BD6A000F015
:1039B000F1F92078400707D446F2D430C0F6000071
:1039C00000F0E8F90BE000BF01F0E2F8014646F232
:1039D000EE30C0F6000000F0DDF9FEF727FB4EF6F2
:1039E0002954CEF20004D4F80300800705D546F22E
:1039F0005840C0F6000000F0CDF9D4F803004000B4
:103A000040F1F880207830B346F22C40C0F6000038
:103A100000F0C0F9217846F23F50C0F6000000F0F7
:103A2000B9F92078C00745D1207880074BD4207899
:103A3000400751D42078000757D42078C0065DD4C1
:103A400094F90000B0F1FF3F60DD46F2C640C0F6D9
:103A5000000000F09FF914F8010C002800F0958098
:103A600046F20B40C0F6000000F094F914F8011C77
:103A700046F25550C0F6000000F08CF914F8010C25
:103A8000C00751D114F8010C800757D414F8010C69
:103A900000075DD414F8010CC00663D414F9010CBE
:103AA000B0F1FF3F69DD46F2C640C0F6000000F00D
:103AB00071F96AE046F22A50C0F6000000F06AF997
:103AC00020788007B3D546F21F50C0F6000000F002
:103AD00061F920784007ADD546F21D50C0F60000D0
:103AE00000F058F920780007A7D546F21350C0F629
:103AF000000000F04FF92078C006A1D586A000F0A4
:103B000049F994F90000B0F1FF3F9EDCD4F80F10A2
:103B100046F23840C0F6000000F03CF914F8010C01
:103B200000289DD131E000BF46F2EE40C0F6000013
:103B300000F030F914F8010C8007A7D546F2E440F4
:103B4000C0F6000000F026F914F8010C0007A1D51A
:103B500046F21250C0F6000000F01CF914F8010CF7
:103B6000C0069BD546F20950C0F6000000F012F9DD
:103B700014F9010CB0F1FF3F95DCD4F80B1046F2BC
:103B80004840C0F6000000F005F9B4F8010088B321
:103B900046F21E40C0F6000000F0FCF8B4F8011038
:103BA00046F26B50C0F6000000F0F4F8B4F80100E3
:103BB000C0072DD1B4F80100800733D4B4F8010058
:103BC000400739D4B4F8010000073FD4B4F801002D
:103BD000C00545D4B4F80100800505D546F2F8408B
:103BE000C0F6000000F0D6F846F2C640C0F600006D
:103BF00000F0D0F8D4F80300B0F1FF3F06DC46F245
:103C00006D40C0F6000000F0C5F800BFFEE700BF41
:103C100046F23350C0F6000000F0BCF8B4F80100E2
:103C20008007CBD546F2DA40C0F6000000F0B2F8CB
:103C3000B4F801004007C5D546F2C840C0F6000000
:103C400000F0A8F8B4F801000007BFD546F2035011
:103C5000C0F6000000F09EF8B4F80100C005B9D528
:103C600046F2CF40C0F6000000F094F8B4F801002E
:103C70008005B3D4B8E700BF7230353A20307825DC
:103C80003038780A000000007230363A203078254B
:103C90003038780A000000007230373A203078253A
:103CA0003038780A000000007230383A2030782529
:103CB0003038780A000000007230393A2030782518
:103CC0003038780A000000007231303A2030782510
:103CD0003038780A000000007231313A20307825FF
:103CE0003038780A000000007231323A20307825EE
:103CF0003038780A00000000206C723A20307825B5
:103D00003038780A000000002070633A20307825AF
:103D10003038780A0000000053544B4552522000BE
:103D200004324BF6EF6C22F00702CDF6AD6C42F890
:103D300040CDC2E901CCC2E903CCC2E905CCC2E95D
:103D400007C100214FF0807CC2E90D301046C2E966
:103D50000911C2E90B11C2F83CC0704780B5FCF7ED
:103D600033FA43F6F061C2F200010A7801320A70B8
:103D7000BDE88040FCF72CBA80B5FCF725FA43F685
:103D8000F061C2F200010A78013A0A70BDE8804091
:103D9000FCF71EBA83B010B581B043F6F8648446D0
:103DA00003A8C2F200040EC003AB2046FF21624606
:103DB000009301F0AFF92046FFF76CFD01B0BDE8BC
:103DC000104003B0704700002DE9F04381B0002897
:103DD0006BD040F2C809C2F200090330D9F80010D4
:103DE00020F003078F4260D809F1180840464FF0D1
:103DF000FF310C2F98BF0C2700F032FBD9F80CE0F4
:103E0000D9E900C1AEEB0103ACEB0704A34249D2F0
:103E1000CE187288706822B903F10C02851ABD426F
:103E200048D2A0423ED20E187288736822B900F1BF
:103E30000C029D1ABD4216D2A34233D2CE1872880C
:103E4000706822B903F10C02851ABD4232D2A04239
:103E500028D20E1872887368002AD7D100F10C029C
:103E60009D1ABD42D2D30446184607F118039D425D
:103E700025D33A4407F10C038D184FF4F5578F50B2
:103E8000C5E901047260686801240CF10C07B842AE
:103E900074801CBF08448260D9E90402184482423D
:103EA00014E000BF404600F0B1FA002001B0BDE8C8
:103EB000F08300BF1C4607F118039D42D9D20122AE
:103EC0007280D9E90423001B10448342C9F8100012
:103ED00038BFC9F814004FF4F5507645308030D122
:103EE000BEF8020068B3D9F80820964529D0DEF85C
:103EF000040001EB000EBEF80200002818BF964532
:103F00001DD0DEF8040001EB000EBEF80200002810
:103F100018BF964513D0DEF8040001EB000EBEF882
:103F20000200002818BF964509D0DEF8040001EB16
:103F3000000EBEF80200002818BF9645D7D1C9F878
:103F40000CE0404600F062FA06F10C0001B0BDE85A
:103F5000F0830000B0B5814214D28B18834211D98E
:103F6000002A47D000EB020E12F00301A2F1010C6F
:103F70004FD013F8014D01290EF8014D3CD1624696
:103F800047E000BFB2B312F00304A2F1010C09D064
:103F90008E461EF8015B0346012C03F8015B05D138
:103FA000624613E08E46034610E000BF4B78022CB9
:103FB000437005D1023A01F1020E831C06E000BFF6
:103FC00001F1030E8978033AC31C8170BCF1030F21
:103FD00038BFB0BDAEF10401043B00BF11F8045F6F
:103FE000043A03F8045F4D785D708D789D70CD784C
:103FF000DD70F3D1B0BD00BF13F8014D02290EF8FA
:10400000014D01D1023A04E013F8011D033A0EF804
:10401000011DBCF1030FEDD3AEF10401023B00BF63
:104020005C78043ACC701C788C7013F8014C4C709E
:1040300013F8024CA3F1040301F80449F0D1D9E7C5
:1040400070B5042A06461BD316F0030018D1C8B277
:104050004FF00133102A00FB03F313D3A2F1100C2D
:10406000012000EB1C1010F003000DD00128C6E960
:104070000033B360F36009D106F11000624616E028
:10408000304650E030462EE0304610E00228C6E9C7
:104090000433B361F36103D106F12000203A06E056
:1040A00006F13000303AC6E90833C6E90A33BCF1FC
:1040B000300F16D300F14004403AC0E90033C0E9A4
:1040C0000233C0E90433C0E90633C0E90833C0E96C
:1040D0000A33C0E90C33C0E90E330F2A2046E9D871
:1040E0002046042A1FD30446151F042D40F8043B24
:1040F00018D3A2F10805042D63600DD3A2F10C05BD
:10410000042DA3600CD304F11000103AE360032ADD
:104110000446E9D807E000BF04F1080002E000BF50
:1041200004F10C002A4622B1CBB211461A46FCF724
:104130002FF9304670BD00002DE9F041884640F26D
:104140001001C2F200010A78054682420F460FD0E4
:104150000F4617F8100FA8420AD00F4617F8200F85
:10416000A84205D011F8300FA84218BF00210F4611
:10417000F868FFF729FE0646C0B1FA68304600210C
:104180000024FFF75DFF3046414608223572747205
:1041900000F052FAFCF718F857F8041F324642F8BC
:1041A0000C1F4A603A605760FCF712F83046BDE8D1
:1041B000F081000010B5044600202072FCF704F8DE
:1041C0002246216952F80C3F5960216922610B6037
:1041D0001260FBF7FDFF2046BDE81040FFF74CBA28
:1041E00010B5044600202072FBF7EEFF54F80C1FB8
:1041F00062684A6062681160C4E90044BDE810402A
:10420000FBF7E6BF40F21002C2F2000211788142D1
:1042100011460FD0114611F8103F83420AD01146C3
:1042200011F8203F834205D012F8301F814218BF99
:104230000022114608467047F0B581B00E4640F2A4
:104240001001C2F2000115460A780446B2420F4638
:104250000FD00F4617F8100FB0420AD00F4617F8CC
:10426000200FB04205D011F8300FB04218BF002126
:104270000F46FFF7A7F90437384600BF0068B84279
:1042800008D00068B84205D00068B84202D0006883
:10429000B842F3D1FFF7A4F946F08000207220461F
:1042A0002946082200F0C8F9FBF78EFF396844F868
:1042B0000C1F4C603C60676001B0BDE8F040FBF74C
:1042C00087BF0000007AC00970470000B0B5FBF757
:1042D0007BFF40F20015C2F200056988044629B14F
:1042E0002046BDE8B040FBF773BF00BFA868FDF7EC
:1042F000BDF843F6F8710138C2F2000151F83010F0
:104300006A68A1F114039342EAD0287043F6F06082
:104310006B60C2F20000037802F11C0001F1080199
:1043200033B1FBF758FF2046BDE8B040FBF750BF64
:10433000FBF751FF2046BDE8B040FBF749BF000046
:1043400010B50446FBF740FF94F8341094F835207C
:1043500001F0F001013184F8341043F6F871C2F233
:10436000000101EBC2014A6840F2001C04F1140391
:10437000C2F2000C1360A2614B60A26BDCF8083043
:10438000616143EA0201CCF80810BDE81040FBF778
:104390001FBF0000B0B50546FBF716FF294651F8D0
:1043A000142F4B6853604B6849601A6091F82120C4
:1043B00043F6F8730960C2F2000353F8324003EB8E
:1043C000C202944204D0BDE8B040FBF701BF00BF79
:1043D00040F20012C2F20002A96B936823EA0101C5
:1043E0009160BDE8B040FBF7F3BE000070B5154624
:1043F0000A4602211C460646FFF71EFF06F114007E
:10440000C6E905000020B583747270BDB0B50546DD
:10441000FBF7DAFE2A4652F8141F044691420BD0ED
:10442000A1F1140000F090FB2046FBF7D1FEFFF74E
:104430004DFF0020B0BD00BFA88B4FF6FF71884232
:1044400006D12046FBF7C4FE6FF00200B0BD00BFEE
:104450000130A8832046FBF7BBFE0020B0BD000062
:104460002DE9F04381B00E4607460091FBF7ACFE04
:10447000B98B804641B1481EB8834046FBF7A8FE81
:10448000002001B0BDE8F083D6B300F081FB054603
:10449000002028637C7A284607F1140900F0E8FB25
:1044A000B4B3012C3CD148460068484530D095F85B
:1044B000351090F8212091421AD30068484527D042
:1044C00095F8351090F82120914211D300684845A5
:1044D0001ED095F8351090F82120914208D300683D
:1044E000484515D095F8351090F821209142DBD23F
:1044F000416805F114020A60A961426068610FE039
:104500004046FBF765FE6FF0010001B0BDE8F083A7
:10451000B86905F114010160A861B961C5F814908A
:10452000012E09DB05F144066A463046002100F001
:1045300005FD304600F068FD4046FBF749FEFFF7F9
:10454000C5FE286B002808BF002001B0BDE8F0833D
:1045500080B582B00AA0FFF71DFC0CA0FFF71AFC83
:104560000FF24C0C15A0032101220523CDF800C049
:10457000FFF710FC19A002B0BDE88040FFF70ABCAD
:104580000A205C207C202F0A000000002D205254BD
:10459000202D2020202020546872656164204F70F7
:1045A00065726174696E672053797374656D0A0072
:1045B0004D6179203136203230323400202F207C7A
:1045C000205C202020202025642E25642E256420B8
:1045D0006275696C642025730A0000002032303057
:1045E00036202D203230323020436F707972696767
:1045F00068742062792072742D7468726561642019
:104600007465616D0A000000014600BF0A7862B15E
:104610004A784AB18A785AB1CA780431002AF5D169
:104620000139081A704700BF0131081A704700BFEE
:104630000231081A704700002DE9F0418046DAB3D4
:10464000C2F1000C00234446CF5C08F80370DFB1D0
:104650000CEB0306771C2FD2CF18787808EB0305F4
:104660006870A8B1B01C27D0B878A870B0B1F01CA1
:1046700022D0F878E870D8B1043304341CEB03007E
:10468000A2F10402E0D117E0601C511E0AD113E030
:10469000A01C013A511E05D10EE000BFE01C023AF9
:1046A000511E09D0FBF77CFE4046BDE8F08100BFFB
:1046B000033A281D511EF5D14046BDE8F0810000A7
:1046C00021F003038C46192B014631D3C81C20F07E
:1046D0000300A3F1180282422AD310B5191A40F23E
:1046E000C804A1F11802C2F20004C4E900204FF48A
:1046F000F5520C394FF0000CC0E90021C0F808C099
:1047000041F6A060C0F201001A4642F80C0D43F8D1
:10471000081C2068A2600C3043F8040C04F1180057
:1047200005A101220023FFF761FE6068E06010BD73
:1047300003A06246FFF72EBB6865617000000000B1
:104740006D656D20696E69742C206572726F7220C0
:10475000626567696E206164647265737320307886
:1047600025782C20616E6420656E6420616464721B
:1047700065737320307825780A00000010B543F681
:10478000F872C2F2000202F11800C2E9060002F15A
:10479000200002F1080302F11001C2E9080002F151
:1047A0004000C2E90233C2E9041102F1280102F11A
:1047B000300302F13804C2E9100002F16000C2E9DE
:1047C0000A11C2E90C33C2E90E4402F1480102F1B8
:1047D000500302F15804C2E9180002F18000C2E956
:1047E0001211C2E91433C2E9164402F1680102F160
:1047F000700302F17804C2E9200002F1A000C2E9CE
:104800001A11C2E91C33C2E91E4402F1880102F107
:10481000900302F19804C2E9280002F1C00040F2BE
:10482000001EC2E92211C2E92433C2E9264402F182
:10483000A80102F1B00302F1B804C2E9300002F1AC
:10484000E000C2F2000EC2E92A11C2E92C33C2E92B
:104850002E4402F1C80102F1D00302F1D804C2E9EA
:1048600038001F204FF0000CC2E93211C2E9343386
:10487000C2E9364402F1E80102F1F00302F1F80462
:104880008EF800000EF10C00AEF802C0C2E9002262
:10489000C2E93A11C2E93C33C2E93E44CEE901CC57
:1048A000CEE9030010BD000010B540F20014C2F2C2
:1048B0000004A068FCF7DAFD43F6F871C2F20001CB
:1048C00001EBC00050F8080CA0F114010830616041
:1048D000BDE81040FBF7ADBC40F21410C2F200007E
:1048E000011DC0E901117047704700002DE9F04338
:1048F00083B00F46014601201D461646FFF71CFCFB
:1049000000283DD004462846FFF75EFA00283DD037
:1049100004F11401DDE90A98C4E9051123212A46AE
:10492000C4E90876C4E90A05FFF78AFB04F120030D
:104930000FCB1A4444F69D13043AC0F60003FFF768
:10494000EFF944F6B542E061002704F14400C0F6F7
:1049500000022146234684F8369084F83590C4E955
:104960000E78C4F84080276384F83470C4E91C775B
:104970000097019700F02EFB204603B0BDE8F083BE
:104980000024204603B0BDE8F08300BF2046FFF7B7
:1049900011FC0024204603B0BDE8F08370B540F25E
:1049A0000410C2F200000568FBF70EFC0446FBF79A
:1049B0000BFC296F064609B1284688473046FBF7AD
:1049C00007FC2846FFF7E6FC042085F8340005F1D3
:1049D000440000F0E7FA2846FFF774FC012809D1EB
:1049E0002846FFF7FDFBFFF771FC2046BDE870404D
:1049F000FBF7EEBB40F20C10C2F20000016845F874
:104A0000141F4D6005606860FFF760FC2046BDE83C
:104A10007040FBF7DDBB000040F20C16C2F200064E
:104A200003E000BF2046FBF7D3FBFBF7CDFB31686B
:104A30000446B142F6D0D1E90020A1F1140550603E
:104A40004B6848691A60C1E90011FEF715FE284657
:104A5000FFF7B0FBE6E7000010B584B044F2F802BF
:104A60004FF48071C2F2000240F26C241F20CDE9A5
:104A70000021C2F2000444F619224FF0200C0290EB
:104A800007A1C0F6000220460023CDF80CC000F0BC
:104A90000BF8204604B0BDE8104000F0BBB800BFE2
:104AA0007469646C650000002DE9F04782B00DF177
:104AB000280A16460A46DDF834909AE88005012156
:104AC0001D460446FFF7B8FB04F11400C4E90500D5
:104AD000384623214246C4E90865C4E90A78FFF74D
:104AE000AFFA04F120030FCB1A4444F69D13043AA5
:104AF000C0F60003FFF714F944F6B542E061002761
:104B000004F14400C0F600022146234684F836A092
:104B100084F835A0C4E90E79C4F84090276384F87E
:104B20003470C4E91C770097019700F053FA002015
:104B300002B0BDE8F087000080B500F001F900F098
:104B40002DF8002080BD0000B0B5044690F8340078
:104B500000F00F0002281CBF4FF0FF30B0BDFBF784
:104B600033FB2246A16952F8143F05465960A169FA
:104B700004F144000B60A261126000F0AFFA284615
:104B8000FBF726FB2046FFF7DBFB0020B0BD000053
:104B900040F20410C2F2000000687047F0B581B026
:104BA0000090FBF711FB40F20411C2F200010C6807
:104BB000054694F8341001F00F01012913D1FBF7D9
:104BC00003FB06462046FFF7E5FB94F8340000F0AF
:104BD000F000023084F8340004F1440000F07EFA62
:104BE0003046FBF7F5FA04F144066A4630460021E8
:104BF000002700F0A3F9304600F006FA2846FBF73C
:104C0000E7FAFFF763FB206B023008BF2763002041
:104C100001B0F0BDB0B5044690F83600012184F82B
:104C2000350001FA00F0A063022084F83400FBF79D
:104C3000CBFA2246A16952F8143F05465960A16992
:104C400004F144000B60A261126000F047FA2846AC
:104C5000FBF7BEFA2046FFF773FB40F20410C2F2E6
:104C600000000068002818BFFFF730FB0020B0BD2F
:104C7000B0B5044690F8340000F00F0001281CBFC6
:104C80004FF0FF30B0BDFBF79FFA05462046FFF717
:104C900081FB94F8340000F0F000023084F8340016
:104CA00004F1440000F01AFA2846FBF791FA0020BC
:104CB000B0BD000080B50246816952F8143F6FF024
:104CC000010C59608169C0F830C00B6082611260CC
:104CD000FFF736FBBDE88040FFF7F8BA10B5FBF7E9
:104CE00073FA40F20411C2F20001096891F834200D
:104CF00002F00F02012A1FD10A4652F814CF53685E
:104D00009C4519D0CCF8043091F835E043F6F8739F
:104D1000C2F2000303EBCE03D1F818E08A615C68AD
:104D2000CEF800C022608C615A604B61FBF750FAEC
:104D3000FFF7CCFA002010BDFBF74AFA002010BDA7
:104D4000002844BF4FF0FF30704744F6D351C1F202
:104D50006201A0FB01239A094FF47A7302FB13004E
:104D6000584300F2E730A0FB010102FB03F000EB27
:104D70009110704744F2FC10C2F2000000687047C6
:104D800080B544F2FC10C2F20000016801310160FC
:104D9000FFF7FEFE016C0139016403D0BDE88040DD
:104DA00000F008B8C16B0164FFF798FFBDE88040D0
:104DB000AFF300802DE9F04F85B003AFCDE9037765
:104DC000FFF7D8FF0546FBF7FFF940F21414C2F2D3
:104DD0000004214651F8048F0190884500F0A88016
:104DE0004FF6FE79C7F6FF79201D6FF0004B029059
:104DF0001CE000BF0E6808462168C6F80480013137
:104E0000216018F80B1CC8F80060C0F80080C8F8D2
:104E1000040041F0010008F80B0C5046FBF7D8F9EC
:104E2000204650F8048F804500F08280D8F81400A6
:104E3000281A48457CD8D8E900104860D8F80420E2
:104E400018F80B0C11608107C8F800805CBF00F0F7
:104E5000FE0008F80B0C0398C0F80480C8F80000A6
:104E6000D8E90210CDF80C80C8F804708847FFF725
:104E700081FF03990546B942D2D0D8E900014160CB
:104E8000D8F80410C8F80480086018F80B0CC8F8AB
:104E9000008000F003010329C2D100F0FE0008F8F1
:104EA0000B0CFBF791F9D8E9001282464A6018F81A
:104EB0000B0CD8F8042000F0FE001160C8F8008048
:104EC000C8F8048008F80B0CFFF754FFD8F810104E
:104ED000029B0A18A168C8F814208B428AD018686F
:104EE0004669B61A01D05E451CD388423FF482AFB2
:104EF00003685E69B61A01D05E4517D38B423FF452
:104F000079AF18684669B61A01D05E450AD388425F
:104F10003FF470AF03685E69B61ADED04E451E4698
:104F2000DBD869E70646184666E700BF1E4663E71A
:104F30000198FBF74DF905B0BDE8F08F70B5144648
:104F40000E460546FBF740F9042E07D8DFE806F0C9
:104F5000040A1018200000BF21686962FBF738F9C5
:104F6000002070BD696A2160FBF732F9002070BD36
:104F7000697A01F0FD016972FBF72AF9002070BD22
:104F8000697A41F002016972FBF722F9002070BDD5
:104F9000697AC9070CBF002101212160FBF718F9CC
:104FA000002070BD10B50446FBF70EF92246A1693A
:104FB00052F8143F5960A169A2610B60617A1260D6
:104FC00001F0FE016172FBF703F92046FFF708F9D3
:104FD000002010BD2DE9F04115460A46DDE906879F
:104FE0000A211C460646FFF727F907F0FE007072FB
:104FF000002006F11401C6E90511C6E90754C6E907
:105000000980BDE8F08100002DE9F0410446FBF77E
:10501000DBF8264656F8141F8046726816F80B0C0B
:105020004A60726800F0FE0011603660766006F833
:105030000B0CFFF79FFE40F2141E3169C2F2000E06
:10504000DEF808304FF6FE7C0A180EF104076FF008
:105050000045C7F6FF7C72619F421FD039684869DE
:10506000801A01D0A8421DD3994217D00F687869E1
:10507000801A01D0A84219D39F420FD039684869DD
:10508000801A01D0A84213D3994207D00F687869DB
:10509000801AE1D060453846DED80BE01868194622
:1050A00008E000BF0846394604E000BF384601E08A
:1050B0000846394646606061607ADEF8002040F0BC
:1050C0000100013260724046CEF800200E60A161FE
:1050D000FBF77EF80020BDE8F081000010B5044623
:1050E000407AC00704BF4FF0FF3010BDFBF76CF8EB
:1050F00054F8141F62684A6062686460116014F8B2
:105100000B1C246001F0FE0104F80B1CFBF760F897
:10511000002010BD2DE9F04F85B09B46144600EBF2
:10512000010A4FF020090391002948BF4FF0FF3AD0
:10513000049002E0411C013408462178252907D05B
:10514000002900F0CB83504538BF0170F2E700BF63
:105150000234002114F8012CA2F12007102F00F2D4
:105160006D801023DFE807F00A6A6A0C6A6A6A6ACF
:105170006A6A6A0E6A126A6A100000BF082305E0B4
:10518000202303E0042301E0012300BF2278194318
:10519000A2F12007102F00F28D801023DFE807F026
:1051A0000A8A8A0C8A8A8A8A8A8A8A0E8A128A8A51
:1051B000100000BF082305E0202303E0042301E0E2
:1051C000012300BF62781943A2F12007102F00F2DB
:1051D00097801023DFE807F00A94940C9494949439
:1051E0009494940E94129494100000BF082305E048
:1051F000202303E0042301E0012300BFA278194328
:10520000A2F12007102F00F283801023DFE807F0BF
:1052100010808012808080808080800E800A808054
:10522000140000BF1943043494E700BF0423F9E7D6
:105230000823F7E72023F5E70123F3E7A31E013C4A
:10524000A2F13007092F3AD80234002606EB860374
:1052500002EB430314F8012CA3F13006A2F130074E
:10526000092F5DD806EB860302EB43032278A3F1F6
:105270003006A2F13007092F54D806EB860302EB63
:1052800043036278A3F13006A2F13007092F00F240
:105290008D8006EB860302EB4303A278A3F1300670
:1052A000A2F130030A2B04F10404CFD3023C2E2ACE
:1052B0003AD018E0631EA2F13007092FC4D92A2A78
:1052C0000CD15BF8046B9C1CB6F1FF3FDCBF76424F
:1052D00041F0100122782E2A26D004E022784FF0E7
:1052E000FF362E2A20D04FF0FF3E42F004036C2BF5
:1052F0006CD094460022ACF12505532D6DD9D5E034
:1053000023460134A2F13007092FD8D89CE700BF0B
:10531000631C0234A2F13007092F95D9CFE700BFF3
:10532000013C00BF2E2ADED1234613F8012FA2F143
:105330003007092F2ED8A31C002700BF07EB8707D3
:1053400002EB47071A78303FA2F13005092D35D816
:1053500007EB870702EB47075A78303FA2F1300589
:10536000092D27D807EB870702EB47079A78303FCC
:10537000A2F13005092D1FD807EB870702EB47077D
:10538000DA78303FA2F130050A2D03F10403D5D3BA
:10539000013B13E02A2A05D114F8022F5BF8047BA5
:1053A00023460BE04FF0FF3708E000BF01342E2A00
:1053B000BAD098E7013301E0023300BF27EAE77E65
:1053C0001C4642F004036C2B7FF493AF14F801CF1A
:1053D000ACF12505532D00F269800A23DFE815F0B2
:1053E000540066006600660066006600660066009F
:1053F000660066006600660066006600660066007D
:10540000660066006600660066006600660066006C
:10541000660066006600660066006600660066005C
:10542000660066006600660066006600660066004C
:10543000660066006600660066006600660066003C
:10544000660066006600780066006600660066001A
:105450006600660066006600660066008C005A0002
:1054600066006600660066005A0066006600660018
:1054700066006600A800AC0066006600BE0066001C
:105480007B00660066007A0050453CBF2521017014
:1054900050E600BF41F002010A23682A1DD1BBF883
:1054A00000208F0748BF12B21AE000BF504503D258
:1054B0002521017094F800C0BCF1000F00F101013A
:1054C0007AD0514538BF81F800C0811C33E600BF57
:1054D00041F040011023682AE1D06C2ADBF800205B
:1054E0000BF1040BCFB25146CDE9006E0297FDF7E8
:1054F000BFFD01461FE600BFC9065BD4022EA6F120
:105500000103C0F2818013F00307A6F1020200F04C
:10551000DB80504538BF80F80090012F00F1010179
:1055200040F0DE801346032A80F004811EE100BFB4
:105530000823682AD1D1B2E7721CB2FA82F24FEA8C
:10554000521241EA020108BF08265BF8042BCFB2D1
:10555000CDE9006E51461023C8E700BF5BF8048B0D
:105560000FF29C32B8F1000F08BF904636B3C6F177
:10557000000C002218F802300BB30CEB02035D1C88
:1055800015D008EB02077D78002D00F0B5809D1C3A
:105590000DD0BD78002D00F0B180033307D0FB782B
:1055A000002B00F0BD8004321CEB0203E2D1324636
:1055B00005E000BF0146DAE0013CBCE5002272458F
:1055C0009446C8BFF446BEF1000FD8BF9446C90642
:1055D0001FD46645A6F101021ADDA6EB0C0111F0FD
:1055E000030775D0504538BF80F80090012F00F1B7
:1055F000010140F08580B21E6FEA0C0030440328A0
:1056000080F0FD8016E100BF01461E46AFE000BFFE
:105610001646BCF1010FC0F21481ACF1010103295F
:1056200004D21CF0030234D10CE100BF2CF00302C1
:10563000002102E004318A4224D0471857453CBF7C
:1056400018F801303B707B1C53450BD208EB010569
:105650006D781D70BB1C534507D3FB1C5345E9D225
:105660000AE000BFBB1C5345F7D208EB0105AD783B
:105670001D70FB1C5345DDD208EB0107FF781F703E
:10568000D8E700BF8844014408461CF0030200F03C
:10569000D98050453CBF98F800100170012A00F1F4
:1056A000010100F0CF8051453CBF98F801300B70EC
:1056B000022A00F1020100F0C58051453CBF98F874
:1056C00002200A70C11CBDE00146032A32D24DE01F
:1056D00001466FEA0C003044032880F09080A9E076
:1056E000514538BF81F80090022F00F1020119D115
:1056F000F31E032A1ED239E0013260E702325EE770
:10570000514538BF81F80090022F00F102016BD1A2
:10571000F21E6FEA0C003044032870D28AE000BF0A
:1057200003324CE7514538BF81F80090C11C331F4C
:10573000032A1BD3181D00BF514501F1010238BFD8
:1057400081F80090524538BF82F800908A1C52457B
:1057500038BF82F80090CA1C5245A0F1040038BF3F
:1057600082F80090042801F10401E5DC002651458F
:105770003CBFDBF800000870022E0BF1040B2FDB9E
:10578000043100BFC81E504538BF80F80090032E7A
:10579000A1F10200FFF4ADAE504538BF80F8009093
:1057A000301F10F1040FA1F1010277D85245A0F18A
:1057B000010038BF82F8009010F1040F3FF6BBAC37
:1057C0005145A0F1010238BF81F80090043112F177
:1057D000030F00F10106D5D30339FFF7ACBC00BFBE
:1057E0000131FFF7A8BC00BF514538BF81F80090D8
:1057F000C11C321F6FEA0C00304403281AD3501C1E
:10580000514501F1010238BF81F80090524538BF7F
:1058100082F800908A1C524538BF82F80090CA1C5A
:105820005245A0F1040038BF82F80090844501F190
:105830000401E5DBACF101060846BCF1010FBFF63F
:10584000ECAE014666457FF776ACA6EB0C0010F097
:10585000030009D0514538BF81F80090012801F1BB
:10586000010205D1701E13E030460A4610E000BF69
:10587000524538BF82F80090022801F1020201D19E
:10588000B01E05E0524538BF82F80090F01ECA1CD9
:105890006FEA0C0131440329114603D21146FFF788
:1058A0004ABC00BF514501F1010238BF81F80090A8
:1058B000524538BF82F800908A1C524538BF82F8A2
:1058C0000090CA1C5245A0F1040038BF82F8009035
:1058D000844501F10401E5DBFFF72DBC0399049B2E
:1058E000002948BFD94331B101460022504528BFA5
:1058F000AAF101010A70C01A05B0BDE8F08F00BF1F
:10590000284E554C4C29000000207047002070475D
:10591000002070470020704780B540F2242044F2F8
:105920000041C2F20000C4F2000100234FF00C0C51
:105930004FF4E13280E80E00C0E90333C0E905C34B
:10594000C361FBF7BBFA002818BFFAF709FE002075
:1059500080BD000080B5FEF7FBFD002080BD00008B
:1059600021F0004201F00043A2F16052B2F5801F25
:1059700028BFD2F17F6C0BD95FEA001C43EAC20258
:1059800042EB507018BF704728BF20F001007047ED
:10599000B2F5801FBCBF184670474FEA410C1CF59A
:1059A000001F02D2084600F0F2BA70B500F00EFAFD
:1059B00000000089FFF7F6BF4FF00040A0F580001F
:1059C000704700002DE9C04130B4DFF8A4C23CEAC2
:1059D000111418BF3CEA131400F0ED801CEA1114F6
:1059E00081EA030544EAD57418BF1CEA131500F0D8
:1059F000C880A4EB050404F17F7404F500344FF073
:105A0000004545EAC12145EAC32341EA505143EA32
:105A100052534FEAC0204FEAC222994208BF904237
:105A200000F09D804FEA13650FF24416765D4FEA51
:105A3000134506FB05F7C7F1807706FB07F74FEA2A
:105A4000D737A7FB03687642A7FB06CEC8F5803898
:105A500038BFA8F1010807FB08E6A6FB028C4FF04F
:105A6000000EE6FB03CEDCF1000CCEF1004E38BF99
:105A7000AEF1010EA6FB0C584FF00007E6FB0E87B7
:105A8000A1FB08C6A0FB07CE16EB0E064FF00005E3
:105A900045F10005E1FB076515F1E04E7EBFA4F579
:105AA00080345FEA46066D4116F1800745F1000536
:105AB0004FEA172747EA05674FEA15254FEA0666BA
:105AC000A6F1DE46B6F1805F20D9384605EBC471F9
:105AD00024F0010C01EB0C11BCF1FE6F02D8F0BCFC
